{
  "contractName": "Crowdsale",
  "abi": [
    {
      "inputs": [
        {
          "internalType": "address",
          "name": "ifSuccessfulSendTo",
          "type": "address"
        },
        {
          "internalType": "uint256",
          "name": "fundingGoalInEthers",
          "type": "uint256"
        },
        {
          "internalType": "uint256",
          "name": "durationInMinutes",
          "type": "uint256"
        },
        {
          "internalType": "uint256",
          "name": "etherCostOfEachToken",
          "type": "uint256"
        },
        {
          "internalType": "address",
          "name": "addressOfTokenUsedAsReward",
          "type": "address"
        }
      ],
      "stateMutability": "nonpayable",
      "type": "constructor"
    },
    {
      "anonymous": false,
      "inputs": [
        {
          "indexed": false,
          "internalType": "address",
          "name": "backer",
          "type": "address"
        },
        {
          "indexed": false,
          "internalType": "uint256",
          "name": "amount",
          "type": "uint256"
        },
        {
          "indexed": false,
          "internalType": "bool",
          "name": "isContribution",
          "type": "bool"
        }
      ],
      "name": "FundTransfer",
      "type": "event"
    },
    {
      "anonymous": false,
      "inputs": [
        {
          "indexed": false,
          "internalType": "address",
          "name": "recipient",
          "type": "address"
        },
        {
          "indexed": false,
          "internalType": "uint256",
          "name": "totalAmountRaised",
          "type": "uint256"
        }
      ],
      "name": "GoalReached",
      "type": "event"
    },
    {
      "stateMutability": "payable",
      "type": "fallback"
    },
    {
      "inputs": [],
      "name": "amountRaised",
      "outputs": [
        {
          "internalType": "uint256",
          "name": "",
          "type": "uint256"
        }
      ],
      "stateMutability": "view",
      "type": "function"
    },
    {
      "inputs": [
        {
          "internalType": "address",
          "name": "",
          "type": "address"
        }
      ],
      "name": "balanceOf",
      "outputs": [
        {
          "internalType": "uint256",
          "name": "",
          "type": "uint256"
        }
      ],
      "stateMutability": "view",
      "type": "function"
    },
    {
      "inputs": [],
      "name": "beneficiary",
      "outputs": [
        {
          "internalType": "address",
          "name": "",
          "type": "address"
        }
      ],
      "stateMutability": "view",
      "type": "function"
    },
    {
      "inputs": [],
      "name": "deadline",
      "outputs": [
        {
          "internalType": "uint256",
          "name": "",
          "type": "uint256"
        }
      ],
      "stateMutability": "view",
      "type": "function"
    },
    {
      "inputs": [],
      "name": "fundingGoal",
      "outputs": [
        {
          "internalType": "uint256",
          "name": "",
          "type": "uint256"
        }
      ],
      "stateMutability": "view",
      "type": "function"
    },
    {
      "inputs": [],
      "name": "price",
      "outputs": [
        {
          "internalType": "uint256",
          "name": "",
          "type": "uint256"
        }
      ],
      "stateMutability": "view",
      "type": "function"
    },
    {
      "inputs": [],
      "name": "tokenReward",
      "outputs": [
        {
          "internalType": "contract token",
          "name": "",
          "type": "address"
        }
      ],
      "stateMutability": "view",
      "type": "function"
    },
    {
      "inputs": [],
      "name": "checkGoalReached",
      "outputs": [],
      "stateMutability": "nonpayable",
      "type": "function"
    },
    {
      "inputs": [],
      "name": "safeWithdrawal",
      "outputs": [],
      "stateMutability": "nonpayable",
      "type": "function"
    }
  ],
  "bytecode": "0x60806040526000600760006101000a81548160ff0219169083151502179055506000600760016101000a81548160ff0219169083151502179055503480156200004757600080fd5b5060405162000e1f38038062000e1f83398181016040528101906200006d9190620001f8565b846000806101000a81548173ffffffffffffffffffffffffffffffffffffffff021916908373ffffffffffffffffffffffffffffffffffffffff160217905550670de0b6b3a764000084620000c39190620002af565b600181905550603c83620000d89190620002af565b42620000e59190620002fa565b600381905550670de0b6b3a764000082620001019190620002af565b60048190555080600560006101000a81548173ffffffffffffffffffffffffffffffffffffffff021916908373ffffffffffffffffffffffffffffffffffffffff160217905550505050505062000335565b600080fd5b600073ffffffffffffffffffffffffffffffffffffffff82169050919050565b6000620001858262000158565b9050919050565b620001978162000178565b8114620001a357600080fd5b50565b600081519050620001b7816200018c565b92915050565b6000819050919050565b620001d281620001bd565b8114620001de57600080fd5b50565b600081519050620001f281620001c7565b92915050565b600080600080600060a0868803121562000217576200021662000153565b5b60006200022788828901620001a6565b95505060206200023a88828901620001e1565b94505060406200024d88828901620001e1565b93505060606200026088828901620001e1565b92505060806200027388828901620001a6565b9150509295509295909350565b7f4e487b7100000000000000000000000000000000000000000000000000000000600052601160045260246000fd5b6000620002bc82620001bd565b9150620002c983620001bd565b9250828202620002d981620001bd565b91508282048414831517620002f357620002f262000280565b5b5092915050565b60006200030782620001bd565b91506200031483620001bd565b92508282019050808211156200032f576200032e62000280565b5b92915050565b610ada80620003456000396000f3fe60806040526004361061008a5760003560e01c806370a082311161005957806370a082311461028b5780637a3a0e84146102c85780637b3e5e7b146102f3578063a035b1fe1461031e578063fd6b7ef8146103495761008b565b806301cb3b20146101f357806329dcb0cf1461020a57806338af3eed146102355780636e66f6e9146102605761008b565b5b600760019054906101000a900460ff16156100a557600080fd5b600034905080600660003373ffffffffffffffffffffffffffffffffffffffff1673ffffffffffffffffffffffffffffffffffffffff16815260200190815260200160002060008282546100f991906107f1565b92505081905550806002600082825461011291906107f1565b92505081905550600560009054906101000a900473ffffffffffffffffffffffffffffffffffffffff1673ffffffffffffffffffffffffffffffffffffffff1663a9059cbb33600454846101669190610854565b6040518363ffffffff1660e01b81526004016101839291906108d5565b600060405180830381600087803b15801561019d57600080fd5b505af11580156101b1573d6000803e3d6000fd5b505050507fe842aea7a5f1b01049d752008c53c52890b1a6daf660cf39e8eec506112bbdf6338260016040516101e993929190610919565b60405180910390a1005b3480156101ff57600080fd5b50610208610360565b005b34801561021657600080fd5b5061021f610409565b60405161022c9190610950565b60405180910390f35b34801561024157600080fd5b5061024a61040f565b604051610257919061096b565b60405180910390f35b34801561026c57600080fd5b50610275610433565b60405161028291906109e5565b60405180910390f35b34801561029757600080fd5b506102b260048036038101906102ad9190610a31565b610459565b6040516102bf9190610950565b60405180910390f35b3480156102d457600080fd5b506102dd610471565b6040516102ea9190610950565b60405180910390f35b3480156102ff57600080fd5b50610308610477565b6040516103159190610950565b60405180910390f35b34801561032a57600080fd5b5061033361047d565b6040516103409190610950565b60405180910390f35b34801561035557600080fd5b5061035e610483565b005b600354421061040757600154600254106103eb576001600760006101000a81548160ff0219169083151502179055507fec3f991caf7857d61663fd1bba1739e04abd4781238508cde554bb849d790c8560008054906101000a900473ffffffffffffffffffffffffffffffffffffffff166002546040516103e29291906108d5565b60405180910390a15b6001600760016101000a81548160ff0219169083151502179055505b565b60035481565b60008054906101000a900473ffffffffffffffffffffffffffffffffffffffff1681565b600560009054906101000a900473ffffffffffffffffffffffffffffffffffffffff1681565b60066020528060005260406000206000915090505481565b60015481565b60025481565b60045481565b60035442106107b657600760009054906101000a900460ff16610631576000600660003373ffffffffffffffffffffffffffffffffffffffff1673ffffffffffffffffffffffffffffffffffffffff1681526020019081526020016000205490506000600660003373ffffffffffffffffffffffffffffffffffffffff1673ffffffffffffffffffffffffffffffffffffffff16815260200190815260200160002081905550600081111561062f576000803373ffffffffffffffffffffffffffffffffffffffff168360405161055990610a8f565b60006040518083038185875af1925050503d8060008114610596576040519150601f19603f3d011682016040523d82523d6000602084013e61059b565b606091505b509150915081156105e7577fe842aea7a5f1b01049d752008c53c52890b1a6daf660cf39e8eec506112bbdf6338460006040516105da93929190610919565b60405180910390a161062c565b82600660003373ffffffffffffffffffffffffffffffffffffffff1673ffffffffffffffffffffffffffffffffffffffff168152602001908152602001600020819055505b50505b505b600760009054906101000a900460ff16801561069857503373ffffffffffffffffffffffffffffffffffffffff1660008054906101000a900473ffffffffffffffffffffffffffffffffffffffff1673ffffffffffffffffffffffffffffffffffffffff16145b156107b55760008060008054906101000a900473ffffffffffffffffffffffffffffffffffffffff1673ffffffffffffffffffffffffffffffffffffffff166002546040516106e690610a8f565b60006040518083038185875af1925050503d8060008114610723576040519150601f19603f3d011682016040523d82523d6000602084013e610728565b606091505b50915091508115610796577fe842aea7a5f1b01049d752008c53c52890b1a6daf660cf39e8eec506112bbdf660008054906101000a900473ffffffffffffffffffffffffffffffffffffffff16600254600060405161078993929190610919565b60405180910390a16107b2565b6000600760006101000a81548160ff0219169083151502179055505b50505b5b565b6000819050919050565b7f4e487b7100000000000000000000000000000000000000000000000000000000600052601160045260246000fd5b60006107fc826107b8565b9150610807836107b8565b925082820190508082111561081f5761081e6107c2565b5b92915050565b7f4e487b7100000000000000000000000000000000000000000000000000000000600052601260045260246000fd5b600061085f826107b8565b915061086a836107b8565b92508261087a57610879610825565b5b828204905092915050565b600073ffffffffffffffffffffffffffffffffffffffff82169050919050565b60006108b082610885565b9050919050565b6108c0816108a5565b82525050565b6108cf816107b8565b82525050565b60006040820190506108ea60008301856108b7565b6108f760208301846108c6565b9392505050565b60008115159050919050565b610913816108fe565b82525050565b600060608201905061092e60008301866108b7565b61093b60208301856108c6565b610948604083018461090a565b949350505050565b600060208201905061096560008301846108c6565b92915050565b600060208201905061098060008301846108b7565b92915050565b6000819050919050565b60006109ab6109a66109a184610885565b610986565b610885565b9050919050565b60006109bd82610990565b9050919050565b60006109cf826109b2565b9050919050565b6109df816109c4565b82525050565b60006020820190506109fa60008301846109d6565b92915050565b600080fd5b610a0e816108a5565b8114610a1957600080fd5b50565b600081359050610a2b81610a05565b92915050565b600060208284031215610a4757610a46610a00565b5b6000610a5584828501610a1c565b91505092915050565b600081905092915050565b50565b6000610a79600083610a5e565b9150610a8482610a69565b600082019050919050565b6000610a9a82610a6c565b915081905091905056fea264697066735822122095e2b355f8a2e53748655b6fbced19ed1e416913ac2e0d1bf4634fd526ff23d864736f6c63430008120033",
  "immutableReferences": {},
  "source": "pragma solidity >=0.4.16 <0.9.0;\n\ninterface token {\n    function  transfer(address receiver, uint amount) external;\n}\n\ncontract Crowdsale {\n    address public beneficiary;\n    uint public fundingGoal;\n    uint public amountRaised;\n    uint public deadline;\n    uint public price;\n    token public tokenReward;\n    mapping(address => uint256) public balanceOf;\n    bool fundingGoalReached = false;\n    bool crowdsaleClosed = false;\n\n    event GoalReached(address recipient, uint totalAmountRaised);\n    event FundTransfer(address backer, uint amount, bool isContribution);\n\n    /**\n     * Constrctor function\n     *\n     * Setup the owner\n     */\n    constructor (address ifSuccessfulSendTo,uint fundingGoalInEthers,uint durationInMinutes,uint etherCostOfEachToken,address addressOfTokenUsedAsReward) \n    {\n        beneficiary = ifSuccessfulSendTo;\n        fundingGoal = fundingGoalInEthers * 1 ether;\n        deadline = block.timestamp + durationInMinutes * 1 minutes;\n        price = etherCostOfEachToken * 1 ether;\n        tokenReward = token(addressOfTokenUsedAsReward);\n    }\n\n    /**\n     * Fallback function\n     *\n     * The function without name is the default function that is called whenever anyone sends funds to a contract\n     */\n    fallback () external payable {\n        require(!crowdsaleClosed);\n        uint amount = msg.value;\n        balanceOf[msg.sender] += amount;\n        amountRaised += amount;\n        tokenReward.transfer(msg.sender, amount / price);\n        emit FundTransfer(msg.sender, amount, true);\n    }\n\n    modifier afterDeadline() { if (block.timestamp >= deadline) _; }\n\n    /**\n     * Check if goal was reached\n     *\n     * Checks if the goal or time limit has been reached and ends the campaign\n     */\n    function checkGoalReached()  public afterDeadline  {\n        if (amountRaised >= fundingGoal){\n            fundingGoalReached = true;\n            emit GoalReached(beneficiary, amountRaised);\n        }\n        crowdsaleClosed = true;\n    }\n\n\n    /**\n     * Withdraw the funds\n     *\n     * Checks to see if goal or time limit has been reached, and if so, and the funding goal was reached,\n     * sends the entire amount to the beneficiary. If goal was not reached, each contributor can withdraw\n     * the amount they contributed.\n     */\n    function  safeWithdrawal() public afterDeadline {\n        if (!fundingGoalReached) {\n            uint amount = balanceOf[msg.sender];\n            balanceOf[msg.sender] = 0;\n            if (amount > 0) {\n                (bool success, bytes memory response) = msg.sender.call{value: amount}(\"\");\n                if (success) {\n                    emit FundTransfer(msg.sender, amount, false);\n                } else {\n                    balanceOf[msg.sender] = amount;\n                }\n            }\n        }\n\n        if (fundingGoalReached && beneficiary == msg.sender) {\n            (bool ch, bytes memory response) = beneficiary.call{value:amountRaised}(\"\");\n            if (ch) {\n                emit FundTransfer(beneficiary, amountRaised, false);\n            } else {\n                //If we fail to send the funds to beneficiary, unlock funders balance\n                fundingGoalReached = false;\n            }\n        }\n    }\n}\n",
  "sourcePath": "D:\\programfiles\\folder\\ptpcode\\smart-contract\\contracts\\Crowdsale.sol",
  "compiler": {
    "name": "solc",
    "version": "0.8.18+commit.87f61d96.Emscripten.clang"
  },
  "schemaVersion": "3.4.11",
  "updatedAt": "2023-02-16T17:28:39.888Z",
  "devdoc": {
    "kind": "dev",
    "methods": {},
    "version": 1
  },
  "userdoc": {
    "kind": "user",
    "methods": {
      "checkGoalReached()": {
        "notice": "Check if goal was reached Checks if the goal or time limit has been reached and ends the campaign"
      },
      "constructor": {
        "notice": "Constrctor function Setup the owner"
      },
      "safeWithdrawal()": {
        "notice": "Withdraw the funds Checks to see if goal or time limit has been reached, and if so, and the funding goal was reached, sends the entire amount to the beneficiary. If goal was not reached, each contributor can withdraw the amount they contributed."
      }
    },
    "version": 1
  }
}