{
  "contractName": "module2",
  "abi": [
    {
      "inputs": [
        {
          "internalType": "uint256",
          "name": "seq_blk_interval",
          "type": "uint256"
        },
        {
          "internalType": "uint256",
          "name": "renew_price",
          "type": "uint256"
        },
        {
          "internalType": "uint256",
          "name": "unre_price",
          "type": "uint256"
        }
      ],
      "stateMutability": "nonpayable",
      "type": "constructor"
    },
    {
      "anonymous": false,
      "inputs": [
        {
          "indexed": true,
          "internalType": "uint256",
          "name": "seqnum",
          "type": "uint256"
        },
        {
          "indexed": true,
          "internalType": "address",
          "name": "cons_addr",
          "type": "address"
        },
        {
          "indexed": false,
          "internalType": "uint256",
          "name": "cons",
          "type": "uint256"
        }
      ],
      "name": "ConsEvent",
      "type": "event"
    },
    {
      "anonymous": false,
      "inputs": [
        {
          "indexed": true,
          "internalType": "uint256",
          "name": "seqnum",
          "type": "uint256"
        },
        {
          "indexed": false,
          "internalType": "uint256",
          "name": "c_price",
          "type": "uint256"
        },
        {
          "indexed": false,
          "internalType": "uint256",
          "name": "ps_price",
          "type": "uint256"
        },
        {
          "indexed": false,
          "internalType": "uint256",
          "name": "bs_price",
          "type": "uint256"
        },
        {
          "indexed": false,
          "internalType": "uint256",
          "name": "p_price",
          "type": "uint256"
        }
      ],
      "name": "PriceEvent",
      "type": "event"
    },
    {
      "anonymous": false,
      "inputs": [
        {
          "indexed": true,
          "internalType": "uint256",
          "name": "seqnum",
          "type": "uint256"
        },
        {
          "indexed": true,
          "internalType": "address",
          "name": "prod_addr",
          "type": "address"
        },
        {
          "indexed": false,
          "internalType": "uint256",
          "name": "prod",
          "type": "uint256"
        }
      ],
      "name": "ProdEvent",
      "type": "event"
    },
    {
      "anonymous": false,
      "inputs": [
        {
          "indexed": true,
          "internalType": "uint256",
          "name": "seqnum",
          "type": "uint256"
        },
        {
          "indexed": true,
          "internalType": "address",
          "name": "ps_addr",
          "type": "address"
        },
        {
          "indexed": false,
          "internalType": "uint256",
          "name": "generation",
          "type": "uint256"
        }
      ],
      "name": "PsGenEvent",
      "type": "event"
    },
    {
      "anonymous": false,
      "inputs": [
        {
          "indexed": true,
          "internalType": "uint256",
          "name": "seqnum",
          "type": "uint256"
        },
        {
          "indexed": true,
          "internalType": "address",
          "name": "sell_addr",
          "type": "address"
        },
        {
          "indexed": false,
          "internalType": "uint256",
          "name": "sold",
          "type": "uint256"
        }
      ],
      "name": "SellEvent",
      "type": "event"
    },
    {
      "anonymous": false,
      "inputs": [
        {
          "indexed": true,
          "internalType": "uint256",
          "name": "seqnum",
          "type": "uint256"
        },
        {
          "indexed": true,
          "internalType": "uint256",
          "name": "role",
          "type": "uint256"
        },
        {
          "indexed": true,
          "internalType": "address",
          "name": "account_addr",
          "type": "address"
        },
        {
          "indexed": false,
          "internalType": "uint256",
          "name": "consumption",
          "type": "uint256"
        },
        {
          "indexed": false,
          "internalType": "uint256",
          "name": "output",
          "type": "uint256"
        },
        {
          "indexed": false,
          "internalType": "int256",
          "name": "expense",
          "type": "int256"
        }
      ],
      "name": "SettleEvent",
      "type": "event"
    },
    {
      "inputs": [],
      "name": "CONSUMER",
      "outputs": [
        {
          "internalType": "uint8",
          "name": "",
          "type": "uint8"
        }
      ],
      "stateMutability": "view",
      "type": "function"
    },
    {
      "inputs": [],
      "name": "POWER_STATION",
      "outputs": [
        {
          "internalType": "uint8",
          "name": "",
          "type": "uint8"
        }
      ],
      "stateMutability": "view",
      "type": "function"
    },
    {
      "inputs": [],
      "name": "PROSUMER",
      "outputs": [
        {
          "internalType": "uint8",
          "name": "",
          "type": "uint8"
        }
      ],
      "stateMutability": "view",
      "type": "function"
    },
    {
      "inputs": [],
      "name": "RENEWABLE_PRICE",
      "outputs": [
        {
          "internalType": "uint256",
          "name": "",
          "type": "uint256"
        }
      ],
      "stateMutability": "view",
      "type": "function"
    },
    {
      "inputs": [],
      "name": "RETAILER",
      "outputs": [
        {
          "internalType": "uint8",
          "name": "",
          "type": "uint8"
        }
      ],
      "stateMutability": "view",
      "type": "function"
    },
    {
      "inputs": [],
      "name": "SEQUENCE_INV",
      "outputs": [
        {
          "internalType": "uint256",
          "name": "",
          "type": "uint256"
        }
      ],
      "stateMutability": "view",
      "type": "function"
    },
    {
      "inputs": [],
      "name": "TIME_START",
      "outputs": [
        {
          "internalType": "uint256",
          "name": "",
          "type": "uint256"
        }
      ],
      "stateMutability": "view",
      "type": "function"
    },
    {
      "inputs": [],
      "name": "UNRENEWABLE_PRICE",
      "outputs": [
        {
          "internalType": "uint256",
          "name": "",
          "type": "uint256"
        }
      ],
      "stateMutability": "view",
      "type": "function"
    },
    {
      "inputs": [
        {
          "internalType": "address",
          "name": "",
          "type": "address"
        }
      ],
      "name": "account_map",
      "outputs": [
        {
          "internalType": "uint8",
          "name": "role",
          "type": "uint8"
        },
        {
          "internalType": "uint256",
          "name": "consumption",
          "type": "uint256"
        },
        {
          "internalType": "uint256",
          "name": "output",
          "type": "uint256"
        },
        {
          "internalType": "int256",
          "name": "bill",
          "type": "int256"
        }
      ],
      "stateMutability": "view",
      "type": "function"
    },
    {
      "inputs": [
        {
          "internalType": "uint256",
          "name": "",
          "type": "uint256"
        }
      ],
      "name": "consumer_addrs",
      "outputs": [
        {
          "internalType": "address",
          "name": "",
          "type": "address"
        }
      ],
      "stateMutability": "view",
      "type": "function"
    },
    {
      "inputs": [],
      "name": "kill",
      "outputs": [],
      "stateMutability": "nonpayable",
      "type": "function"
    },
    {
      "inputs": [],
      "name": "last_settlement",
      "outputs": [
        {
          "internalType": "uint256",
          "name": "",
          "type": "uint256"
        }
      ],
      "stateMutability": "view",
      "type": "function"
    },
    {
      "inputs": [],
      "name": "latest_price",
      "outputs": [
        {
          "internalType": "uint256",
          "name": "",
          "type": "uint256"
        }
      ],
      "stateMutability": "view",
      "type": "function"
    },
    {
      "inputs": [
        {
          "internalType": "uint256",
          "name": "",
          "type": "uint256"
        }
      ],
      "name": "power_station_addrs",
      "outputs": [
        {
          "internalType": "address",
          "name": "",
          "type": "address"
        }
      ],
      "stateMutability": "view",
      "type": "function"
    },
    {
      "inputs": [
        {
          "internalType": "uint256",
          "name": "",
          "type": "uint256"
        }
      ],
      "name": "prosumer_addrs",
      "outputs": [
        {
          "internalType": "address",
          "name": "",
          "type": "address"
        }
      ],
      "stateMutability": "view",
      "type": "function"
    },
    {
      "inputs": [
        {
          "internalType": "uint256",
          "name": "",
          "type": "uint256"
        }
      ],
      "name": "retailer_addrs",
      "outputs": [
        {
          "internalType": "address",
          "name": "",
          "type": "address"
        }
      ],
      "stateMutability": "view",
      "type": "function"
    },
    {
      "inputs": [],
      "name": "get_current_seqnum",
      "outputs": [
        {
          "internalType": "uint256",
          "name": "seqnum",
          "type": "uint256"
        }
      ],
      "stateMutability": "view",
      "type": "function"
    },
    {
      "inputs": [],
      "name": "get_last_settlement",
      "outputs": [
        {
          "internalType": "uint256",
          "name": "seqnum",
          "type": "uint256"
        }
      ],
      "stateMutability": "view",
      "type": "function"
    },
    {
      "inputs": [
        {
          "internalType": "address",
          "name": "account",
          "type": "address"
        }
      ],
      "name": "get_bill",
      "outputs": [
        {
          "internalType": "int256",
          "name": "expense",
          "type": "int256"
        }
      ],
      "stateMutability": "view",
      "type": "function"
    },
    {
      "inputs": [],
      "name": "register_consumer",
      "outputs": [],
      "stateMutability": "nonpayable",
      "type": "function"
    },
    {
      "inputs": [],
      "name": "register_prosumer",
      "outputs": [],
      "stateMutability": "nonpayable",
      "type": "function"
    },
    {
      "inputs": [],
      "name": "register_battery_station",
      "outputs": [],
      "stateMutability": "nonpayable",
      "type": "function"
    },
    {
      "inputs": [],
      "name": "register_power_station",
      "outputs": [],
      "stateMutability": "nonpayable",
      "type": "function"
    },
    {
      "inputs": [
        {
          "internalType": "uint256",
          "name": "amount",
          "type": "uint256"
        }
      ],
      "name": "post_cons",
      "outputs": [
        {
          "internalType": "uint256",
          "name": "seqnum",
          "type": "uint256"
        },
        {
          "internalType": "uint256",
          "name": "cons",
          "type": "uint256"
        }
      ],
      "stateMutability": "nonpayable",
      "type": "function"
    },
    {
      "inputs": [
        {
          "internalType": "uint256",
          "name": "amount",
          "type": "uint256"
        }
      ],
      "name": "post_prod",
      "outputs": [
        {
          "internalType": "uint256",
          "name": "seqnum",
          "type": "uint256"
        },
        {
          "internalType": "uint256",
          "name": "prod",
          "type": "uint256"
        }
      ],
      "stateMutability": "nonpayable",
      "type": "function"
    },
    {
      "inputs": [
        {
          "internalType": "uint256",
          "name": "amount",
          "type": "uint256"
        }
      ],
      "name": "post_sell",
      "outputs": [
        {
          "internalType": "uint256",
          "name": "seqnum",
          "type": "uint256"
        },
        {
          "internalType": "uint256",
          "name": "sold",
          "type": "uint256"
        }
      ],
      "stateMutability": "nonpayable",
      "type": "function"
    },
    {
      "inputs": [
        {
          "internalType": "uint256",
          "name": "amount",
          "type": "uint256"
        }
      ],
      "name": "post_ps_gen",
      "outputs": [
        {
          "internalType": "uint256",
          "name": "seqnum",
          "type": "uint256"
        },
        {
          "internalType": "uint256",
          "name": "generation",
          "type": "uint256"
        }
      ],
      "stateMutability": "nonpayable",
      "type": "function"
    },
    {
      "inputs": [],
      "name": "settle",
      "outputs": [
        {
          "internalType": "uint256",
          "name": "seqnum",
          "type": "uint256"
        }
      ],
      "stateMutability": "nonpayable",
      "type": "function"
    }
  ],
  "bytecode": "0x60806040523480156200001157600080fd5b506040516200304e3803806200304e83398181016040528101906200003791906200010a565b336000806101000a81548173ffffffffffffffffffffffffffffffffffffffff021916908373ffffffffffffffffffffffffffffffffffffffff160217905550826002819055504260018190555081600381905550806004819055506002600454600354620000a7919062000195565b620000b39190620001ff565b600581905550600060068190555050505062000237565b600080fd5b6000819050919050565b620000e481620000cf565b8114620000f057600080fd5b50565b6000815190506200010481620000d9565b92915050565b600080600060608486031215620001265762000125620000ca565b5b60006200013686828701620000f3565b93505060206200014986828701620000f3565b92505060406200015c86828701620000f3565b9150509250925092565b7f4e487b7100000000000000000000000000000000000000000000000000000000600052601160045260246000fd5b6000620001a282620000cf565b9150620001af83620000cf565b9250828201905080821115620001ca57620001c962000166565b5b92915050565b7f4e487b7100000000000000000000000000000000000000000000000000000000600052601260045260246000fd5b60006200020c82620000cf565b91506200021983620000cf565b9250826200022c576200022b620001d0565b5b828204905092915050565b612e0780620002476000396000f3fe608060405234801561001057600080fd5b50600436106101c45760003560e01c80639a7f1822116100f9578063d40dfda311610097578063e77986dc11610071578063e77986dc146104dc578063edc794dc1461050d578063fb415e9214610517578063fff27d711461054a576101c4565b8063d40dfda31461045c578063d52320031461047a578063e28913b3146104ab576101c4565b8063b0983d42116100d3578063b0983d42146103e6578063b737624814610416578063c0ccde6714610434578063cd23ec331461043e576101c4565b80639a7f18221461038e5780639c896d23146103985780639e9388f0146103b6576101c4565b8063535de5e9116101665780637942b17e116101405780637942b17e146102f15780637aa74ce714610321578063880c21fb1461035257806394561a1714610370576101c4565b8063535de5e9146102855780635498b654146102a35780636839b449146102d3576101c4565b8063120d9a68116101a2578063120d9a681461020f5780632468d3c11461022d57806341c0e1b51461024b57806346f592ec14610255576101c4565b80630bf05e55146101c95780630f76214f146101d357806311da60b4146101f1575b600080fd5b6101d1610568565b005b6101db6106eb565b6040516101e891906126a5565b60405180910390f35b6101f96106f1565b60405161020691906126a5565b60405180910390f35b610217611807565b60405161022491906126dc565b60405180910390f35b61023561180c565b60405161024291906126a5565b60405180910390f35b610253611833565b005b61026f600480360381019061026a9190612728565b6118c1565b60405161027c9190612796565b60405180910390f35b61028d611900565b60405161029a91906126dc565b60405180910390f35b6102bd60048036038101906102b89190612728565b611905565b6040516102ca9190612796565b60405180910390f35b6102db611944565b6040516102e891906126a5565b60405180910390f35b61030b60048036038101906103069190612728565b61194a565b6040516103189190612796565b60405180910390f35b61033b60048036038101906103369190612728565b611989565b6040516103499291906127b1565b60405180910390f35b61035a611b84565b60405161036791906126a5565b60405180910390f35b610378611b8a565b60405161038591906126dc565b60405180910390f35b610396611b8f565b005b6103a0611d12565b6040516103ad91906126dc565b60405180910390f35b6103d060048036038101906103cb9190612728565b611d17565b6040516103dd9190612796565b60405180910390f35b61040060048036038101906103fb9190612806565b611d56565b60405161040d919061284c565b60405180910390f35b61041e611da2565b60405161042b91906126a5565b60405180910390f35b61043c611dac565b005b610446611f2f565b60405161045391906126a5565b60405180910390f35b610464611f35565b60405161047191906126a5565b60405180910390f35b610494600480360381019061048f9190612728565b611f3b565b6040516104a29291906127b1565b60405180910390f35b6104c560048036038101906104c09190612728565b612136565b6040516104d39291906127b1565b60405180910390f35b6104f660048036038101906104f19190612728565b61232e565b6040516105049291906127b1565b60405180910390f35b610515612529565b005b610531600480360381019061052c9190612806565b612649565b6040516105419493929190612867565b60405180910390f35b610552612686565b60405161055f91906126a5565b60405180910390f35b6000600760003373ffffffffffffffffffffffffffffffffffffffff1673ffffffffffffffffffffffffffffffffffffffff16815260200190815260200160002060000160009054906101000a900460ff1660ff16146105c757600080fd5b6003600760003373ffffffffffffffffffffffffffffffffffffffff1673ffffffffffffffffffffffffffffffffffffffff16815260200190815260200160002060000160006101000a81548160ff021916908360ff1602179055506009339080600181540180825580915050600190039060005260206000200160009091909190916101000a81548173ffffffffffffffffffffffffffffffffffffffff021916908373ffffffffffffffffffffffffffffffffffffffff160217905550600b339080600181540180825580915050600190039060005260206000200160009091909190916101000a81548173ffffffffffffffffffffffffffffffffffffffff021916908373ffffffffffffffffffffffffffffffffffffffff160217905550565b60015481565b6000806106fc61180c565b9050600160065461070d91906128db565b811161071d576000915050611804565b600080600080600090505b6009805490508167ffffffffffffffff1610156107ea576007600060098367ffffffffffffffff16815481106107615761076061290f565b5b9060005260206000200160009054906101000a900473ffffffffffffffffffffffffffffffffffffffff1673ffffffffffffffffffffffffffffffffffffffff1673ffffffffffffffffffffffffffffffffffffffff16815260200190815260200160002060010154846107d591906128db565b935080806107e290612952565b915050610728565b600090505b600a805490508167ffffffffffffffff1610156108b15760076000600a8367ffffffffffffffff16815481106108285761082761290f565b5b9060005260206000200160009054906101000a900473ffffffffffffffffffffffffffffffffffffffff1673ffffffffffffffffffffffffffffffffffffffff1673ffffffffffffffffffffffffffffffffffffffff168152602001908152602001600020600201548361089c91906128db565b925080806108a990612952565b9150506107ef565b600090505b600b805490508167ffffffffffffffff1610156109785760076000600b8367ffffffffffffffff16815481106108ef576108ee61290f565b5b9060005260206000200160009054906101000a900473ffffffffffffffffffffffffffffffffffffffff1673ffffffffffffffffffffffffffffffffffffffff1673ffffffffffffffffffffffffffffffffffffffff168152602001908152602001600020600201548261096391906128db565b9150808061097090612952565b9150506108b6565b60008284866109879190612982565b6109919190612982565b90506000846003546109a391906129b6565b826004546109b191906129b6565b856005546109bf91906129b6565b6109c991906128db565b6109d391906128db565b905060008087146109f15786826109ea9190612a27565b90506109f7565b60055490505b600188610a049190612982565b7f0515a3f30625eb6d79e9999f668acbc2aa93733c063acaf2d98fb0a8392199e182600454600554600354604051610a3f9493929190612a58565b60405180910390a2600080600080600c8054905003610ad957600073ffffffffffffffffffffffffffffffffffffffff16600460ff1660018d610a829190612982565b7ffd664a6402fc46f21f0b8e750b4512478d7377ee5bcb982474ee48281501a5f960008a6004548c610ab491906129b6565b610abd90612a9d565b604051610acc93929190612b2a565b60405180910390a4610d46565b60045486610ae791906129b6565b610af090612a9d565b92508260076000600c600081548110610b0c57610b0b61290f565b5b9060005260206000200160009054906101000a900473ffffffffffffffffffffffffffffffffffffffff1673ffffffffffffffffffffffffffffffffffffffff1673ffffffffffffffffffffffffffffffffffffffff1681526020019081526020016000206003016000828254610b839190612b61565b92505081905550600c600081548110610b9f57610b9e61290f565b5b9060005260206000200160009054906101000a900473ffffffffffffffffffffffffffffffffffffffff1673ffffffffffffffffffffffffffffffffffffffff16600460ff1660018d610bf29190612982565b7ffd664a6402fc46f21f0b8e750b4512478d7377ee5bcb982474ee48281501a5f960076000600c600081548110610c2c57610c2b61290f565b5b9060005260206000200160009054906101000a900473ffffffffffffffffffffffffffffffffffffffff1673ffffffffffffffffffffffffffffffffffffffff1673ffffffffffffffffffffffffffffffffffffffff168152602001908152602001600020600101548a88604051610ca693929190612ba5565b60405180910390a4600160086000600c600081548110610cc957610cc861290f565b5b9060005260206000200160009054906101000a900473ffffffffffffffffffffffffffffffffffffffff1673ffffffffffffffffffffffffffffffffffffffff1673ffffffffffffffffffffffffffffffffffffffff16815260200190815260200160002060006101000a81548160ff0219169083151502179055505b600096505b600b805490508767ffffffffffffffff1610156110a25760076000600b8967ffffffffffffffff1681548110610d8457610d8361290f565b5b9060005260206000200160009054906101000a900473ffffffffffffffffffffffffffffffffffffffff1673ffffffffffffffffffffffffffffffffffffffff1673ffffffffffffffffffffffffffffffffffffffff16815260200190815260200160002060010154915060076000600b8967ffffffffffffffff1681548110610e1157610e1061290f565b5b9060005260206000200160009054906101000a900473ffffffffffffffffffffffffffffffffffffffff1673ffffffffffffffffffffffffffffffffffffffff1673ffffffffffffffffffffffffffffffffffffffff16815260200190815260200160002060020154905080600554610e8a91906129b6565b8285610e9691906129b6565b610ea09190612bdc565b92508260076000600b8a67ffffffffffffffff1681548110610ec557610ec461290f565b5b9060005260206000200160009054906101000a900473ffffffffffffffffffffffffffffffffffffffff1673ffffffffffffffffffffffffffffffffffffffff1673ffffffffffffffffffffffffffffffffffffffff1681526020019081526020016000206003016000828254610f3c9190612b61565b92505081905550600b8767ffffffffffffffff1681548110610f6157610f6061290f565b5b9060005260206000200160009054906101000a900473ffffffffffffffffffffffffffffffffffffffff1673ffffffffffffffffffffffffffffffffffffffff16600360ff1660018d610fb49190612982565b7ffd664a6402fc46f21f0b8e750b4512478d7377ee5bcb982474ee48281501a5f9858588604051610fe793929190612ba5565b60405180910390a4600160086000600b8a67ffffffffffffffff16815481106110135761101261290f565b5b9060005260206000200160009054906101000a900473ffffffffffffffffffffffffffffffffffffffff1673ffffffffffffffffffffffffffffffffffffffff1673ffffffffffffffffffffffffffffffffffffffff16815260200190815260200160002060006101000a81548160ff021916908315150217905550868061109a90612952565b975050610d4b565b600096505b600a805490508767ffffffffffffffff1610156113fe5760076000600a8967ffffffffffffffff16815481106110e0576110df61290f565b5b9060005260206000200160009054906101000a900473ffffffffffffffffffffffffffffffffffffffff1673ffffffffffffffffffffffffffffffffffffffff1673ffffffffffffffffffffffffffffffffffffffff16815260200190815260200160002060010154915060076000600a8967ffffffffffffffff168154811061116d5761116c61290f565b5b9060005260206000200160009054906101000a900473ffffffffffffffffffffffffffffffffffffffff1673ffffffffffffffffffffffffffffffffffffffff1673ffffffffffffffffffffffffffffffffffffffff168152602001908152602001600020600201549050806003546111e691906129b6565b82856111f291906129b6565b6111fc9190612bdc565b92508260076000600a8a67ffffffffffffffff16815481106112215761122061290f565b5b9060005260206000200160009054906101000a900473ffffffffffffffffffffffffffffffffffffffff1673ffffffffffffffffffffffffffffffffffffffff1673ffffffffffffffffffffffffffffffffffffffff16815260200190815260200160002060030160008282546112989190612b61565b92505081905550600a8767ffffffffffffffff16815481106112bd576112bc61290f565b5b9060005260206000200160009054906101000a900473ffffffffffffffffffffffffffffffffffffffff1673ffffffffffffffffffffffffffffffffffffffff16600260ff1660018d6113109190612982565b7ffd664a6402fc46f21f0b8e750b4512478d7377ee5bcb982474ee48281501a5f985858860405161134393929190612ba5565b60405180910390a4600160086000600a8a67ffffffffffffffff168154811061136f5761136e61290f565b5b9060005260206000200160009054906101000a900473ffffffffffffffffffffffffffffffffffffffff1673ffffffffffffffffffffffffffffffffffffffff1673ffffffffffffffffffffffffffffffffffffffff16815260200190815260200160002060006101000a81548160ff02191690831515021790555086806113f690612952565b9750506110a7565b600096505b6009805490508767ffffffffffffffff1610156117db576007600060098967ffffffffffffffff168154811061143c5761143b61290f565b5b9060005260206000200160009054906101000a900473ffffffffffffffffffffffffffffffffffffffff1673ffffffffffffffffffffffffffffffffffffffff1673ffffffffffffffffffffffffffffffffffffffff168152602001908152602001600020600101549150600115156008600060098a67ffffffffffffffff16815481106114cd576114cc61290f565b5b9060005260206000200160009054906101000a900473ffffffffffffffffffffffffffffffffffffffff1673ffffffffffffffffffffffffffffffffffffffff1673ffffffffffffffffffffffffffffffffffffffff16815260200190815260200160002060009054906101000a900460ff161515036115ec5760006008600060098a67ffffffffffffffff168154811061156b5761156a61290f565b5b9060005260206000200160009054906101000a900473ffffffffffffffffffffffffffffffffffffffff1673ffffffffffffffffffffffffffffffffffffffff1673ffffffffffffffffffffffffffffffffffffffff16815260200190815260200160002060006101000a81548160ff0219169083151502179055506116a8565b81846115f891906129b6565b925060098767ffffffffffffffff16815481106116185761161761290f565b5b9060005260206000200160009054906101000a900473ffffffffffffffffffffffffffffffffffffffff1673ffffffffffffffffffffffffffffffffffffffff16600160ff1660018d61166b9190612982565b7ffd664a6402fc46f21f0b8e750b4512478d7377ee5bcb982474ee48281501a5f98560008860405161169f93929190612c1f565b60405180910390a45b60006007600060098a67ffffffffffffffff16815481106116cc576116cb61290f565b5b9060005260206000200160009054906101000a900473ffffffffffffffffffffffffffffffffffffffff1673ffffffffffffffffffffffffffffffffffffffff1673ffffffffffffffffffffffffffffffffffffffff1681526020019081526020016000206002018190555060006007600060098a67ffffffffffffffff168154811061175c5761175b61290f565b5b9060005260206000200160009054906101000a900473ffffffffffffffffffffffffffffffffffffffff1673ffffffffffffffffffffffffffffffffffffffff1673ffffffffffffffffffffffffffffffffffffffff1681526020019081526020016000206001018190555086806117d390612952565b975050611403565b8360058190555060018b6117ef9190612982565b6006819055508a9b5050505050505050505050505b90565b600481565b600080600254600154426118209190612982565b61182a9190612a27565b90508091505090565b60008054906101000a900473ffffffffffffffffffffffffffffffffffffffff1673ffffffffffffffffffffffffffffffffffffffff163373ffffffffffffffffffffffffffffffffffffffff16036118bf5760008054906101000a900473ffffffffffffffffffffffffffffffffffffffff1673ffffffffffffffffffffffffffffffffffffffff16ff5b565b600a81815481106118d157600080fd5b906000526020600020016000915054906101000a900473ffffffffffffffffffffffffffffffffffffffff1681565b600381565b6009818154811061191557600080fd5b906000526020600020016000915054906101000a900473ffffffffffffffffffffffffffffffffffffffff1681565b60055481565b600c818154811061195a57600080fd5b906000526020600020016000915054906101000a900473ffffffffffffffffffffffffffffffffffffffff1681565b600080600160065461199b91906128db565b6119a361180c565b11156119e4576040517f08c379a00000000000000000000000000000000000000000000000000000000081526004016119db90612cd9565b60405180910390fd5b600260ff16600760003373ffffffffffffffffffffffffffffffffffffffff1673ffffffffffffffffffffffffffffffffffffffff16815260200190815260200160002060000160009054906101000a900460ff1660ff1614611a7c576040517f08c379a0000000000000000000000000000000000000000000000000000000008152600401611a7390612d45565b60405180910390fd5b82600760003373ffffffffffffffffffffffffffffffffffffffff1673ffffffffffffffffffffffffffffffffffffffff1681526020019081526020016000206002016000828254611ace91906128db565b925050819055506000611adf61180c565b90506000600760003373ffffffffffffffffffffffffffffffffffffffff1673ffffffffffffffffffffffffffffffffffffffff1681526020019081526020016000206002015490503373ffffffffffffffffffffffffffffffffffffffff16827f93dd87282bb52c163ac2f6eceb526fa9671dfc2ebba6cedd8643a9b6f7e810bc83604051611b6f91906126a5565b60405180910390a38381935093505050915091565b60025481565b600281565b6000600760003373ffffffffffffffffffffffffffffffffffffffff1673ffffffffffffffffffffffffffffffffffffffff16815260200190815260200160002060000160009054906101000a900460ff1660ff1614611bee57600080fd5b6004600760003373ffffffffffffffffffffffffffffffffffffffff1673ffffffffffffffffffffffffffffffffffffffff16815260200190815260200160002060000160006101000a81548160ff021916908360ff1602179055506009339080600181540180825580915050600190039060005260206000200160009091909190916101000a81548173ffffffffffffffffffffffffffffffffffffffff021916908373ffffffffffffffffffffffffffffffffffffffff160217905550600c339080600181540180825580915050600190039060005260206000200160009091909190916101000a81548173ffffffffffffffffffffffffffffffffffffffff021916908373ffffffffffffffffffffffffffffffffffffffff160217905550565b600181565b600b8181548110611d2757600080fd5b906000526020600020016000915054906101000a900473ffffffffffffffffffffffffffffffffffffffff1681565b6000600760008373ffffffffffffffffffffffffffffffffffffffff1673ffffffffffffffffffffffffffffffffffffffff168152602001908152602001600020600301549050919050565b6000600654905090565b6000600760003373ffffffffffffffffffffffffffffffffffffffff1673ffffffffffffffffffffffffffffffffffffffff16815260200190815260200160002060000160009054906101000a900460ff1660ff1614611e0b57600080fd5b6002600760003373ffffffffffffffffffffffffffffffffffffffff1673ffffffffffffffffffffffffffffffffffffffff16815260200190815260200160002060000160006101000a81548160ff021916908360ff1602179055506009339080600181540180825580915050600190039060005260206000200160009091909190916101000a81548173ffffffffffffffffffffffffffffffffffffffff021916908373ffffffffffffffffffffffffffffffffffffffff160217905550600a339080600181540180825580915050600190039060005260206000200160009091909190916101000a81548173ffffffffffffffffffffffffffffffffffffffff021916908373ffffffffffffffffffffffffffffffffffffffff160217905550565b60045481565b60065481565b6000806001600654611f4d91906128db565b611f5561180c565b1115611f96576040517f08c379a0000000000000000000000000000000000000000000000000000000008152600401611f8d90612cd9565b60405180910390fd5b600360ff16600760003373ffffffffffffffffffffffffffffffffffffffff1673ffffffffffffffffffffffffffffffffffffffff16815260200190815260200160002060000160009054906101000a900460ff1660ff161461202e576040517f08c379a000000000000000000000000000000000000000000000000000000000815260040161202590612d45565b60405180910390fd5b82600760003373ffffffffffffffffffffffffffffffffffffffff1673ffffffffffffffffffffffffffffffffffffffff168152602001908152602001600020600201600082825461208091906128db565b92505081905550600061209161180c565b90506000600760003373ffffffffffffffffffffffffffffffffffffffff1673ffffffffffffffffffffffffffffffffffffffff1681526020019081526020016000206002015490503373ffffffffffffffffffffffffffffffffffffffff16827f91c6177ffc7594c9cda9df7aea42e157fdbdfd48d9ef1f9a19f0f2c69c66a2508360405161212191906126a5565b60405180910390a38381935093505050915091565b600080600160065461214891906128db565b61215061180c565b1115612191576040517f08c379a000000000000000000000000000000000000000000000000000000000815260040161218890612cd9565b60405180910390fd5b6000600760003373ffffffffffffffffffffffffffffffffffffffff1673ffffffffffffffffffffffffffffffffffffffff16815260200190815260200160002060000160009054906101000a900460ff1660ff1603612226576040517f08c379a000000000000000000000000000000000000000000000000000000000815260040161221d90612db1565b60405180910390fd5b82600760003373ffffffffffffffffffffffffffffffffffffffff1673ffffffffffffffffffffffffffffffffffffffff168152602001908152602001600020600101600082825461227891906128db565b92505081905550600061228961180c565b90506000600760003373ffffffffffffffffffffffffffffffffffffffff1673ffffffffffffffffffffffffffffffffffffffff1681526020019081526020016000206001015490503373ffffffffffffffffffffffffffffffffffffffff16827f8f431353846ba7f082432bbf0d1f8fc7262b737d03af4ba9a42e748163602aef8360405161231991906126a5565b60405180910390a38181935093505050915091565b600080600160065461234091906128db565b61234861180c565b1115612389576040517f08c379a000000000000000000000000000000000000000000000000000000000815260040161238090612cd9565b60405180910390fd5b600460ff16600760003373ffffffffffffffffffffffffffffffffffffffff1673ffffffffffffffffffffffffffffffffffffffff16815260200190815260200160002060000160009054906101000a900460ff1660ff1614612421576040517f08c379a000000000000000000000000000000000000000000000000000000000815260040161241890612d45565b60405180910390fd5b82600760003373ffffffffffffffffffffffffffffffffffffffff1673ffffffffffffffffffffffffffffffffffffffff168152602001908152602001600020600201600082825461247391906128db565b92505081905550600061248461180c565b90506000600760003373ffffffffffffffffffffffffffffffffffffffff1673ffffffffffffffffffffffffffffffffffffffff1681526020019081526020016000206002015490503373ffffffffffffffffffffffffffffffffffffffff16827ff7d5924849317d56fc298770392a6453b65a6d8a3e6e2b4e4cc61bf5eb9306498360405161251491906126a5565b60405180910390a38381935093505050915091565b6000600760003373ffffffffffffffffffffffffffffffffffffffff1673ffffffffffffffffffffffffffffffffffffffff16815260200190815260200160002060000160009054906101000a900460ff1660ff161461258857600080fd5b6001600760003373ffffffffffffffffffffffffffffffffffffffff1673ffffffffffffffffffffffffffffffffffffffff16815260200190815260200160002060000160006101000a81548160ff021916908360ff1602179055506009339080600181540180825580915050600190039060005260206000200160009091909190916101000a81548173ffffffffffffffffffffffffffffffffffffffff021916908373ffffffffffffffffffffffffffffffffffffffff160217905550565b60076020528060005260406000206000915090508060000160009054906101000a900460ff16908060010154908060020154908060030154905084565b60035481565b6000819050919050565b61269f8161268c565b82525050565b60006020820190506126ba6000830184612696565b92915050565b600060ff82169050919050565b6126d6816126c0565b82525050565b60006020820190506126f160008301846126cd565b92915050565b600080fd5b6127058161268c565b811461271057600080fd5b50565b600081359050612722816126fc565b92915050565b60006020828403121561273e5761273d6126f7565b5b600061274c84828501612713565b91505092915050565b600073ffffffffffffffffffffffffffffffffffffffff82169050919050565b600061278082612755565b9050919050565b61279081612775565b82525050565b60006020820190506127ab6000830184612787565b92915050565b60006040820190506127c66000830185612696565b6127d36020830184612696565b9392505050565b6127e381612775565b81146127ee57600080fd5b50565b600081359050612800816127da565b92915050565b60006020828403121561281c5761281b6126f7565b5b600061282a848285016127f1565b91505092915050565b6000819050919050565b61284681612833565b82525050565b6000602082019050612861600083018461283d565b92915050565b600060808201905061287c60008301876126cd565b6128896020830186612696565b6128966040830185612696565b6128a3606083018461283d565b95945050505050565b7f4e487b7100000000000000000000000000000000000000000000000000000000600052601160045260246000fd5b60006128e68261268c565b91506128f18361268c565b9250828201905080821115612909576129086128ac565b5b92915050565b7f4e487b7100000000000000000000000000000000000000000000000000000000600052603260045260246000fd5b600067ffffffffffffffff82169050919050565b600061295d8261293e565b915067ffffffffffffffff8203612977576129766128ac565b5b600182019050919050565b600061298d8261268c565b91506129988361268c565b92508282039050818111156129b0576129af6128ac565b5b92915050565b60006129c18261268c565b91506129cc8361268c565b92508282026129da8161268c565b915082820484148315176129f1576129f06128ac565b5b5092915050565b7f4e487b7100000000000000000000000000000000000000000000000000000000600052601260045260246000fd5b6000612a328261268c565b9150612a3d8361268c565b925082612a4d57612a4c6129f8565b5b828204905092915050565b6000608082019050612a6d6000830187612696565b612a7a6020830186612696565b612a876040830185612696565b612a946060830184612696565b95945050505050565b6000612aa882612833565b91507f80000000000000000000000000000000000000000000000000000000000000008203612ada57612ad96128ac565b5b816000039050919050565b6000819050919050565b6000819050919050565b6000612b14612b0f612b0a84612ae5565b612aef565b61268c565b9050919050565b612b2481612af9565b82525050565b6000606082019050612b3f6000830186612b1b565b612b4c6020830185612696565b612b59604083018461283d565b949350505050565b6000612b6c82612833565b9150612b7783612833565b925082820190508281121560008312168382126000841215161715612b9f57612b9e6128ac565b5b92915050565b6000606082019050612bba6000830186612696565b612bc76020830185612696565b612bd4604083018461283d565b949350505050565b6000612be782612833565b9150612bf283612833565b9250828203905081811260008412168282136000851215161715612c1957612c186128ac565b5b92915050565b6000606082019050612c346000830186612696565b612c416020830185612b1b565b612c4e604083018461283d565b949350505050565b600082825260208201905092915050565b7f7468652070726576696f757320626c6f636b20686173206265656e207365747460008201527f6c65640000000000000000000000000000000000000000000000000000000000602082015250565b6000612cc3602383612c56565b9150612cce82612c67565b604082019050919050565b60006020820190508181036000830152612cf281612cb6565b9050919050565b7f636f6e736974656e74206e6f6465207479706500000000000000000000000000600082015250565b6000612d2f601383612c56565b9150612d3a82612cf9565b602082019050919050565b60006020820190508181036000830152612d5e81612d22565b9050919050565b7f616e792072656769737465726564206e6f64652063616e20636f6e73756d6500600082015250565b6000612d9b601f83612c56565b9150612da682612d65565b602082019050919050565b60006020820190508181036000830152612dca81612d8e565b905091905056fea2646970667358221220e208b27f2184e54515ec32fea22c3efc5c0b8dc0b77f82e4d297721a57b34d5864736f6c63430008120033",
  "immutableReferences": {},
  "source": "pragma solidity >=0.4.16 <0.9.0;\n\n\ncontract Mortal {\n    /* Define variable owner of the type address */\n    address payable owner;\n\n    /* This function is executed at initialization and sets the owner of the contract */\n    constructor () { owner = payable(msg.sender); }\n\n    /* Function to recover the funds on the contract */\n    function kill() public { if (msg.sender == owner) selfdestruct(owner); }\n}\n\n\ncontract module2 is Mortal {\n    struct Account{\n        uint8 role;\n        // amount of electricity consumption, in Joul\n        uint consumption;\n        // amount of output by prosumer or battery station or power station, in Joul\n        uint output;\n        // unpaid expense, negative denotes income\n        int bill;\n    }\n\n    // CONSUMER denotes the registration status, \n    // other roles are regarded as special consumers\n    uint8 constant public CONSUMER = 1;\n    uint8 constant public PROSUMER = 2;\n    // battery station\n    uint8 constant public RETAILER = 3;\n    /* POWER_STATION is not used since we assume the electricity generation\n     * of power station can be derived from the difference between consumption and\n     * prosumer production.  \n     */\n    uint8 constant public POWER_STATION = 4;\n\n    // the starting time of the system, for calculating sequence block number\n    uint public TIME_START;\n    // the interval of a sequence block \n    uint public SEQUENCE_INV;\n    // the renewable electricity price for prosumer output\n    uint public RENEWABLE_PRICE;\n    // the unrenewable electricity price for power station output\n    uint public UNRENEWABLE_PRICE;\n    // the price settled by the last settlement\n    uint public latest_price;\n    // the latest sequence block number settled \n    uint public last_settlement;\n\n    mapping(address => Account) public account_map;\n    // mapping of the event-emitted account address, to avoid duplicated event\n    mapping(address => bool) logged_map;\n    address[] public consumer_addrs;\n    address[] public prosumer_addrs;\n    address[] public retailer_addrs;\n    address[] public power_station_addrs;\n\n    event ConsEvent(uint indexed seqnum, address indexed cons_addr, uint cons);\n    event ProdEvent(uint indexed seqnum, address indexed prod_addr, uint prod);\n    event SellEvent(uint indexed seqnum, address indexed sell_addr, uint sold);\n    event SettleEvent(uint indexed seqnum, uint indexed role, address indexed account_addr, uint consumption, uint output,  int expense);\n    event PsGenEvent(uint indexed seqnum, address indexed ps_addr, uint generation);\n    event PriceEvent(uint indexed seqnum, uint c_price, uint ps_price, uint bs_price, uint p_price);\n\n    constructor (uint seq_blk_interval, uint renew_price, uint unre_price)  {\n        SEQUENCE_INV = seq_blk_interval;\n        TIME_START = block.timestamp;\n        RENEWABLE_PRICE = renew_price;\n        UNRENEWABLE_PRICE = unre_price;\n        latest_price = (RENEWABLE_PRICE+UNRENEWABLE_PRICE)/2;\n        last_settlement = 0;\n    }\n\n    modifier only_completed_prev_seq(){\n\n        \n        require(get_current_seqnum() <= last_settlement+1, \"the previous block has been settled\");\n        _;\n    }\n\n    modifier not_registered(){\n        require(account_map[msg.sender].role == 0);\n        _;\n    }\n\n    /// get current sequence block number\n    function get_current_seqnum() view public  \n        returns (uint seqnum) \n    {\n        uint cur_seqnum = (block.timestamp - TIME_START)/SEQUENCE_INV;\n        return (cur_seqnum);\n    }\n\n    /// get last settlement sequence block number\n    function get_last_settlement() view public\n        returns (uint seqnum)\n    {\n        return (last_settlement);\n    }\n\n    function get_bill(address account) view public\n        returns (int expense)\n    {\n        return account_map[account].bill;\n    }\n\n    function register_consumer() public not_registered{\n        account_map[msg.sender].role = CONSUMER;\n        consumer_addrs.push(msg.sender);\n    }\n\n    function register_prosumer() public  not_registered{\n        account_map[msg.sender].role = PROSUMER;\n        consumer_addrs.push(msg.sender);\n        prosumer_addrs.push(msg.sender);\n    }\n\n    function register_battery_station() public not_registered{\n        account_map[msg.sender].role = RETAILER;\n        consumer_addrs.push(msg.sender);\n        retailer_addrs.push(msg.sender);\n    }\n\n    function register_power_station() public not_registered{\n        account_map[msg.sender].role = POWER_STATION;\n        consumer_addrs.push(msg.sender);\n        power_station_addrs.push(msg.sender);\n    }\n\n    /// post consumption, assumption: any role can post_cons\n    function post_cons(uint amount) public only_completed_prev_seq\n        returns (uint seqnum, uint cons) \n    {   \n        require(account_map[msg.sender].role != 0, \"any registered node can consume\");\n        \n        account_map[msg.sender].consumption += amount;\n\n        uint cur_seqnum = get_current_seqnum();\n        uint consumption = account_map[msg.sender].consumption;\n\n        emit ConsEvent(cur_seqnum, msg.sender, consumption);\n        return (cur_seqnum, consumption);\n    }\n\n    /// post production, assumption: only prosumer can post_cons\n    function post_prod(uint amount) public only_completed_prev_seq\n        returns (uint seqnum, uint prod)\n    {   \n        require(account_map[msg.sender].role == PROSUMER, \"consitent node type\");\n\n        account_map[msg.sender].output += amount;\n\n        uint cur_seqnum = get_current_seqnum();\n        uint production = account_map[msg.sender].output;\n\n        emit ProdEvent(cur_seqnum, msg.sender, production);\n        return (seqnum, production);\n    }\n\n    /// post sale, assumption: only retailer(battery station) can post_sell\n    function post_sell(uint amount) public only_completed_prev_seq\n        returns (uint seqnum, uint sold)\n    {\n        require(account_map[msg.sender].role == RETAILER, \"consitent node type\");\n\n        account_map[msg.sender].output += amount;\n\n        uint cur_seqnum = get_current_seqnum();\n        uint cur_sold = account_map[msg.sender].output;\n\n        emit SellEvent(cur_seqnum, msg.sender, cur_sold);\n        return (seqnum, cur_sold);\n    }\n\n    /// post power station generation, assumption: only power station can post_ps_gen\n    function post_ps_gen(uint amount) public only_completed_prev_seq\n        returns (uint seqnum, uint generation)\n    {\n        require(account_map[msg.sender].role == POWER_STATION, \"consitent node type\");\n\n        account_map[msg.sender].output += amount;\n\n        uint cur_seqnum = get_current_seqnum();\n        uint cur_generation = account_map[msg.sender].output;\n\n        emit PsGenEvent(cur_seqnum, msg.sender, cur_generation);\n        return (seqnum, cur_generation);\n    }\n\n    /// settle the previous sequence block\n    function settle() public returns (uint seqnum){\n        uint cur_seqnum = get_current_seqnum();\n        // return 0 if still in the sequence block next to the last_settlement\n        if(cur_seqnum <= last_settlement+1){\n            return 0;\n        }\n\n        uint cons_sum = 0;\n        uint prod_sum = 0;\n        uint bs_sum = 0;\n        uint64 i = 0;\n\n        // consumer_addrs contains all the registered account addresses\n        for (i=0; i<consumer_addrs.length; i++){\n            cons_sum += account_map[consumer_addrs[i]].consumption;\n        }\n\n        for (i=0; i<prosumer_addrs.length; i++){\n            prod_sum += account_map[prosumer_addrs[i]].output;\n        }\n\n        for (i=0; i<retailer_addrs.length; i++){\n            bs_sum += account_map[retailer_addrs[i]].output;\n        }\n\n\n        uint ps_sum = cons_sum - prod_sum - bs_sum;\n        uint revenue_sum = (latest_price*bs_sum)\n                                +(UNRENEWABLE_PRICE*ps_sum)\n                                +(RENEWABLE_PRICE*prod_sum);\n\n        uint c_price;\n        if(cons_sum != 0){\n            c_price = revenue_sum/cons_sum;\n        }\n        else{\n            c_price = latest_price;\n        }\n        emit PriceEvent(cur_seqnum-1, c_price, UNRENEWABLE_PRICE, latest_price, RENEWABLE_PRICE);\n        int expense;\n        uint consumption;\n        uint output;\n\n        // emit event for power station\n        if(power_station_addrs.length == 0){\n            emit SettleEvent(cur_seqnum-1, POWER_STATION, address(0), 0, ps_sum, -int(ps_sum*UNRENEWABLE_PRICE));\n        }\n        else{\n            expense = -int(ps_sum*UNRENEWABLE_PRICE);\n            account_map[power_station_addrs[0]].bill += expense;\n            emit SettleEvent(cur_seqnum-1, POWER_STATION, power_station_addrs[0], \n                account_map[power_station_addrs[0]].consumption, ps_sum, expense);\n            logged_map[power_station_addrs[0]] = true;\n        }\n        /* TODO END */\n\n        // emit event for battery stations\n        for (i=0; i<retailer_addrs.length; i++){\n            consumption = account_map[retailer_addrs[i]].consumption;\n            output = account_map[retailer_addrs[i]].output;\n            expense = int(c_price*consumption)\n                        - int(latest_price*output);\n            account_map[retailer_addrs[i]].bill += expense;\n            emit SettleEvent(cur_seqnum-1, RETAILER, retailer_addrs[i], consumption, output, expense);\n            logged_map[retailer_addrs[i]] = true;\n        }\n\n        // emit event for prosumers\n        for (i=0; i<prosumer_addrs.length; i++){\n            consumption = account_map[prosumer_addrs[i]].consumption;\n            output = account_map[prosumer_addrs[i]].output;\n            expense = int(c_price*consumption)\n                        - int(RENEWABLE_PRICE*output);\n            account_map[prosumer_addrs[i]].bill += expense;\n            emit SettleEvent(cur_seqnum-1, PROSUMER, prosumer_addrs[i], consumption, output, expense);\n            logged_map[prosumer_addrs[i]] = true;\n        }\n\n        // emit event for consumers who are not battery stations, prosumers or power stations\n        // and clear all the logged record and data accumulation\n        for (i=0; i<consumer_addrs.length; i++){\n            // power station, or prosumer or battery station\n            consumption = account_map[consumer_addrs[i]].consumption;\n            if(logged_map[consumer_addrs[i]] == true){\n                logged_map[consumer_addrs[i]] = false;\n            }\n            // pure consumer\n            else{\n                expense = int(c_price*consumption);\n                emit SettleEvent(cur_seqnum-1, CONSUMER, consumer_addrs[i], consumption, 0, expense);\n            }\n            account_map[consumer_addrs[i]].output = 0;\n            account_map[consumer_addrs[i]].consumption = 0;\n        }\n        \n        latest_price = c_price;\n        last_settlement = cur_seqnum - 1;\n        return cur_seqnum;\n    }\n}\n",
  "sourcePath": "D:\\programfiles\\folder\\ptpcode\\smart-contract\\contracts\\module2.sol",
  "compiler": {
    "name": "solc",
    "version": "0.8.18+commit.87f61d96.Emscripten.clang"
  },
  "schemaVersion": "3.4.11",
  "updatedAt": "2023-02-16T17:28:39.962Z",
  "devdoc": {
    "kind": "dev",
    "methods": {},
    "version": 1
  },
  "userdoc": {
    "kind": "user",
    "methods": {
      "get_current_seqnum()": {
        "notice": "get current sequence block number"
      },
      "get_last_settlement()": {
        "notice": "get last settlement sequence block number"
      },
      "post_cons(uint256)": {
        "notice": "post consumption, assumption: any role can post_cons"
      },
      "post_prod(uint256)": {
        "notice": "post production, assumption: only prosumer can post_cons"
      },
      "post_ps_gen(uint256)": {
        "notice": "post power station generation, assumption: only power station can post_ps_gen"
      },
      "post_sell(uint256)": {
        "notice": "post sale, assumption: only retailer(battery station) can post_sell"
      },
      "settle()": {
        "notice": "settle the previous sequence block"
      }
    },
    "version": 1
  }
}