{
  "contractName": "module1",
  "abi": [
    {
      "inputs": [],
      "stateMutability": "nonpayable",
      "type": "constructor"
    },
    {
      "anonymous": false,
      "inputs": [
        {
          "indexed": false,
          "internalType": "uint256",
          "name": "seq_num",
          "type": "uint256"
        },
        {
          "indexed": false,
          "internalType": "address",
          "name": "from",
          "type": "address"
        },
        {
          "indexed": false,
          "internalType": "int256",
          "name": "amount",
          "type": "int256"
        }
      ],
      "name": "BatteryResellEvent",
      "type": "event"
    },
    {
      "anonymous": false,
      "inputs": [
        {
          "indexed": false,
          "internalType": "uint256",
          "name": "seq_num",
          "type": "uint256"
        },
        {
          "indexed": false,
          "internalType": "address",
          "name": "from",
          "type": "address"
        },
        {
          "indexed": false,
          "internalType": "int256",
          "name": "amount",
          "type": "int256"
        },
        {
          "indexed": false,
          "internalType": "uint256",
          "name": "deposit",
          "type": "uint256"
        }
      ],
      "name": "BatteryStoreEvent",
      "type": "event"
    },
    {
      "anonymous": false,
      "inputs": [
        {
          "indexed": false,
          "internalType": "uint256",
          "name": "seq_num",
          "type": "uint256"
        },
        {
          "indexed": false,
          "internalType": "address",
          "name": "from",
          "type": "address"
        },
        {
          "indexed": false,
          "internalType": "int256",
          "name": "amount",
          "type": "int256"
        },
        {
          "indexed": false,
          "internalType": "uint256",
          "name": "portion",
          "type": "uint256"
        },
        {
          "indexed": false,
          "internalType": "uint256",
          "name": "deposit",
          "type": "uint256"
        }
      ],
      "name": "ConsumeEvent",
      "type": "event"
    },
    {
      "anonymous": false,
      "inputs": [
        {
          "indexed": false,
          "internalType": "uint256",
          "name": "seq_num",
          "type": "uint256"
        },
        {
          "indexed": false,
          "internalType": "address",
          "name": "from",
          "type": "address"
        },
        {
          "indexed": false,
          "internalType": "int256",
          "name": "amount",
          "type": "int256"
        }
      ],
      "name": "ProduceEvent",
      "type": "event"
    },
    {
      "anonymous": false,
      "inputs": [
        {
          "indexed": false,
          "internalType": "uint256",
          "name": "seq_num",
          "type": "uint256"
        },
        {
          "indexed": true,
          "internalType": "address",
          "name": "from",
          "type": "address"
        },
        {
          "indexed": false,
          "internalType": "int256",
          "name": "power_demand",
          "type": "int256"
        }
      ],
      "name": "SettleEvent",
      "type": "event"
    },
    {
      "inputs": [],
      "name": "kill",
      "outputs": [],
      "stateMutability": "nonpayable",
      "type": "function"
    },
    {
      "inputs": [
        {
          "internalType": "uint256",
          "name": "seq_num",
          "type": "uint256"
        },
        {
          "internalType": "int256",
          "name": "amount",
          "type": "int256"
        },
        {
          "internalType": "uint256",
          "name": "portion",
          "type": "uint256"
        },
        {
          "internalType": "uint256",
          "name": "money",
          "type": "uint256"
        }
      ],
      "name": "post_cons",
      "outputs": [
        {
          "internalType": "uint256",
          "name": "",
          "type": "uint256"
        },
        {
          "internalType": "address",
          "name": "",
          "type": "address"
        },
        {
          "internalType": "int256",
          "name": "",
          "type": "int256"
        },
        {
          "internalType": "uint256",
          "name": "",
          "type": "uint256"
        },
        {
          "internalType": "uint256",
          "name": "",
          "type": "uint256"
        }
      ],
      "stateMutability": "nonpayable",
      "type": "function"
    },
    {
      "inputs": [
        {
          "internalType": "uint256",
          "name": "seq_num",
          "type": "uint256"
        },
        {
          "internalType": "int256",
          "name": "amount",
          "type": "int256"
        }
      ],
      "name": "post_prod",
      "outputs": [
        {
          "internalType": "uint256",
          "name": "",
          "type": "uint256"
        },
        {
          "internalType": "address",
          "name": "",
          "type": "address"
        },
        {
          "internalType": "int256",
          "name": "",
          "type": "int256"
        }
      ],
      "stateMutability": "nonpayable",
      "type": "function"
    },
    {
      "inputs": [
        {
          "internalType": "uint256",
          "name": "seq_num",
          "type": "uint256"
        },
        {
          "internalType": "int256",
          "name": "amount",
          "type": "int256"
        },
        {
          "internalType": "uint256",
          "name": "money",
          "type": "uint256"
        }
      ],
      "name": "post_store",
      "outputs": [
        {
          "internalType": "uint256",
          "name": "",
          "type": "uint256"
        },
        {
          "internalType": "address",
          "name": "",
          "type": "address"
        },
        {
          "internalType": "int256",
          "name": "",
          "type": "int256"
        },
        {
          "internalType": "uint256",
          "name": "",
          "type": "uint256"
        }
      ],
      "stateMutability": "nonpayable",
      "type": "function"
    },
    {
      "inputs": [
        {
          "internalType": "uint256",
          "name": "seq_num",
          "type": "uint256"
        },
        {
          "internalType": "int256",
          "name": "amount",
          "type": "int256"
        }
      ],
      "name": "resell",
      "outputs": [
        {
          "internalType": "uint256",
          "name": "",
          "type": "uint256"
        },
        {
          "internalType": "address",
          "name": "",
          "type": "address"
        },
        {
          "internalType": "int256",
          "name": "",
          "type": "int256"
        }
      ],
      "stateMutability": "nonpayable",
      "type": "function"
    },
    {
      "inputs": [
        {
          "internalType": "uint256",
          "name": "seq_num",
          "type": "uint256"
        }
      ],
      "name": "settle",
      "outputs": [
        {
          "internalType": "uint256",
          "name": "",
          "type": "uint256"
        },
        {
          "internalType": "address",
          "name": "",
          "type": "address"
        },
        {
          "internalType": "int256",
          "name": "",
          "type": "int256"
        }
      ],
      "stateMutability": "nonpayable",
      "type": "function"
    }
  ],
  "bytecode": "0x60806040523480156200001157600080fd5b50336000806101000a81548173ffffffffffffffffffffffffffffffffffffffff021916908373ffffffffffffffffffffffffffffffffffffffff1602179055506001808162000062919062000305565b5062000406565b7f4e487b7100000000000000000000000000000000000000000000000000000000600052602260045260246000fd5b60006002820490506001821680620000b157607f821691505b602082108103620000c757620000c662000069565b5b50919050565b600081549050620000de8162000098565b9050919050565b7f4e487b7100000000000000000000000000000000000000000000000000000000600052604160045260246000fd5b60008190508160005260206000209050919050565b60008190508160005260206000209050919050565b60006020601f8301049050919050565b600082821b905092915050565b6000600883026200018d7fffffffffffffffffffffffffffffffffffffffffffffffffffffffffffffffff826200014e565b6200019986836200014e565b95508019841693508086168417925050509392505050565b6000819050919050565b6000819050919050565b6000620001e6620001e0620001da84620001b1565b620001bb565b620001b1565b9050919050565b6000819050919050565b6200020283620001c5565b6200021a6200021182620001ed565b8484546200015b565b825550505050565b600090565b6200023162000222565b6200023e818484620001f7565b505050565b5b8181101562000266576200025a60008262000227565b60018101905062000244565b5050565b601f821115620002b5576200027f8162000114565b6200028a846200013e565b810160208510156200029a578190505b620002b2620002a9856200013e565b83018262000243565b50505b505050565b600082821c905092915050565b6000620002da60001984600802620002ba565b1980831691505092915050565b6000620002f58383620002c7565b9150826002028217905092915050565b8181036200031557505062000404565b6200032082620000cd565b67ffffffffffffffff8111156200033c576200033b620000e5565b5b62000348825462000098565b620003558282856200026a565b6000601f83116001811462000389576000841562000374578287015490505b620003808582620002e7565b865550620003fd565b601f198416620003998762000129565b9650620003a68662000114565b60005b82811015620003d057848901548255600182019150600185019450602081019050620003a9565b86831015620003f05784890154620003ec601f891682620002c7565b8355505b6001600288020188555050505b5050505050505b565b61081880620004166000396000f3fe608060405234801561001057600080fd5b50600436106100625760003560e01c8063385336731461006757806341c0e1b51461009957806389c28179146100a35780638df82800146100d5578063e225f58914610107578063fb8a5fff1461013a575b600080fd5b610081600480360381019061007c91906104ae565b61016e565b6040516100909392919061054d565b60405180910390f35b6100a16101d7565b005b6100bd60048036038101906100b891906104ae565b610265565b6040516100cc9392919061054d565b60405180910390f35b6100ef60048036038101906100ea9190610584565b6102ce565b6040516100fe9392919061054d565b60405180910390f35b610121600480360381019061011c91906105b1565b610352565b6040516101319493929190610604565b60405180910390f35b610154600480360381019061014f9190610649565b6103c3565b6040516101659594939291906106b0565b60405180910390f35b600080600083600260008282546101859190610732565b925050819055507fb4003b46afb426d8f2d35c3216395a5f270b949797871c641720a00f42e6a5ed8533866040516101bf9392919061054d565b60405180910390a18433859250925092509250925092565b60008054906101000a900473ffffffffffffffffffffffffffffffffffffffff1673ffffffffffffffffffffffffffffffffffffffff163373ffffffffffffffffffffffffffffffffffffffff16036102635760008054906101000a900473ffffffffffffffffffffffffffffffffffffffff1673ffffffffffffffffffffffffffffffffffffffff16ff5b565b6000806000836002600082825461027c9190610776565b925050819055507f61c2a4168444867d93be62299c9c9d4d3623cae8db102b4b2e0129be43fbc1998533866040516102b69392919061054d565b60405180910390a18433859250925092509250925092565b60008060008060009050600060025413156102f157600254905060006002819055505b3373ffffffffffffffffffffffffffffffffffffffff167fa48830ba3fb5ea7af8d991f0075dec4566c61c8d54c0b1bfd02393f286c9adbd86836040516103399291906107b9565b60405180910390a2843382935093509350509193909250565b600080600080856002600082825461036a9190610776565b925050819055507fd0e04ed6ffd4481c39af1d9cd60a023e873fd8c9a78f8ca2f4e08781041fe349873388886040516103a69493929190610604565b60405180910390a186338787935093509350935093509350935093565b600080600080600087600260008282546103dd9190610732565b925050819055507f713ee1a023ea6b48dc98fb871450f7e8bf6c131e62b2f8670d238ff8575c661189338a8a8a60405161041b9594939291906106b0565b60405180910390a1883389898994509450945094509450945094509450945094565b600080fd5b6000819050919050565b61045581610442565b811461046057600080fd5b50565b6000813590506104728161044c565b92915050565b6000819050919050565b61048b81610478565b811461049657600080fd5b50565b6000813590506104a881610482565b92915050565b600080604083850312156104c5576104c461043d565b5b60006104d385828601610463565b92505060206104e485828601610499565b9150509250929050565b6104f781610442565b82525050565b600073ffffffffffffffffffffffffffffffffffffffff82169050919050565b6000610528826104fd565b9050919050565b6105388161051d565b82525050565b61054781610478565b82525050565b600060608201905061056260008301866104ee565b61056f602083018561052f565b61057c604083018461053e565b949350505050565b60006020828403121561059a5761059961043d565b5b60006105a884828501610463565b91505092915050565b6000806000606084860312156105ca576105c961043d565b5b60006105d886828701610463565b93505060206105e986828701610499565b92505060406105fa86828701610463565b9150509250925092565b600060808201905061061960008301876104ee565b610626602083018661052f565b610633604083018561053e565b61064060608301846104ee565b95945050505050565b600080600080608085870312156106635761066261043d565b5b600061067187828801610463565b945050602061068287828801610499565b935050604061069387828801610463565b92505060606106a487828801610463565b91505092959194509250565b600060a0820190506106c560008301886104ee565b6106d2602083018761052f565b6106df604083018661053e565b6106ec60608301856104ee565b6106f960808301846104ee565b9695505050505050565b7f4e487b7100000000000000000000000000000000000000000000000000000000600052601160045260246000fd5b600061073d82610478565b915061074883610478565b9250828201905082811215600083121683821260008412151617156107705761076f610703565b5b92915050565b600061078182610478565b915061078c83610478565b92508282039050818112600084121682821360008512151617156107b3576107b2610703565b5b92915050565b60006040820190506107ce60008301856104ee565b6107db602083018461053e565b939250505056fea26469706673582212208dbee50e16cf715ad4e9a264c1dc1058318c67a167c67d9b8e8e41d331c9c22f64736f6c63430008120033",
  "immutableReferences": {},
  "source": "pragma solidity >=0.4.16 <0.9.0;\n\ncontract Mortal {\n    /* Define variable owner of the type address */\n    address payable owner;\n\n    /* This function is executed at initialization and sets the owner of the contract */\n    constructor () { owner = payable(msg.sender); }\n\n    /* Function to recover the funds on the contract */\n    function kill() public { if (msg.sender == owner) selfdestruct(owner); }\n}\n\ncontract module1 is Mortal {\n    /* Define variable greeting of the type string */\n    string version;\n    int power_demand;\n\n    event ConsumeEvent(\n        uint seq_num,\n        address from,\n        int amount,\n        uint portion,\n        uint deposit);\n\n    event ProduceEvent(\n        uint seq_num,\n        address from,\n        int amount);\n\n    event BatteryStoreEvent(\n        uint seq_num,\n        address from,\n        int amount,\n        uint deposit);\n\n    event BatteryResellEvent(\n        uint seq_num,\n        address from,\n        int amount);\n\n    event SettleEvent(\n        uint seq_num,\n        address indexed from,\n        int power_demand);\n\n    /* This runs when the contract is executed */\n    constructor ()  {\n        version = version;\n    }\n\n    /* post consumption function */\n    function post_cons(uint seq_num, int amount, uint portion, uint money) public \n    returns (uint, address, int, uint, uint) {\n        power_demand += amount;\n        emit ConsumeEvent(seq_num, msg.sender, amount, portion, money);\n        return (seq_num, msg.sender, amount, portion, money);\n    }\n\n    function post_prod(uint seq_num, int amount) public\n    returns (uint, address, int){\n        power_demand -= amount;\n        emit ProduceEvent(seq_num, msg.sender, amount);\n        return (seq_num, msg.sender, amount);\n    }\n\n    function post_store(uint seq_num, int amount, uint money) public\n    returns (uint, address, int, uint){\n        power_demand -= amount;\n        emit BatteryStoreEvent(seq_num, msg.sender, amount, money);\n        return (seq_num, msg.sender, amount, money);\n    }\n\n    function resell(uint seq_num, int amount) public\n    returns (uint, address, int){\n        power_demand += amount;\n        emit BatteryResellEvent(seq_num, msg.sender, amount);\n        return (seq_num, msg.sender, amount);\n    }\n\n    function settle(uint seq_num) public\n    returns (uint, address, int){\n        int req_power = 0;\n        if(power_demand>0){\n            req_power = power_demand;\n            power_demand = 0;\n        }\n        emit SettleEvent(seq_num, msg.sender, req_power);\n        return (seq_num, msg.sender, req_power);\n    }\n}\n",
  "sourcePath": "D:\\programfiles\\folder\\ptpcode\\smart-contract\\contracts\\module1.sol",
  "compiler": {
    "name": "solc",
    "version": "0.8.18+commit.87f61d96.Emscripten.clang"
  },
  "schemaVersion": "3.4.11",
  "updatedAt": "2023-02-16T17:28:39.947Z",
  "devdoc": {
    "kind": "dev",
    "methods": {},
    "version": 1
  },
  "userdoc": {
    "kind": "user",
    "methods": {},
    "version": 1
  }
}