{
  "contractName": "Mortal",
  "abi": [
    {
      "inputs": [],
      "stateMutability": "nonpayable",
      "type": "constructor"
    },
    {
      "inputs": [],
      "name": "kill",
      "outputs": [],
      "stateMutability": "nonpayable",
      "type": "function"
    }
  ],
  "bytecode": "0x608060405234801561001057600080fd5b50336000806101000a81548173ffffffffffffffffffffffffffffffffffffffff021916908373ffffffffffffffffffffffffffffffffffffffff16021790555060f88061005f6000396000f3fe6080604052348015600f57600080fd5b506004361060285760003560e01c806341c0e1b514602d575b600080fd5b60336035565b005b60008054906101000a900473ffffffffffffffffffffffffffffffffffffffff1673ffffffffffffffffffffffffffffffffffffffff163373ffffffffffffffffffffffffffffffffffffffff160360c05760008054906101000a900473ffffffffffffffffffffffffffffffffffffffff1673ffffffffffffffffffffffffffffffffffffffff16ff5b56fea26469706673582212208d3fa9885d84e0f1c448122ca2dbb3eb7680932188972847a4f67e2a92550cc764736f6c63430008120033",
  "immutableReferences": {},
  "source": "pragma solidity >=0.4.16 <0.9.0;\n\n\ncontract Mortal {\n    /* Define variable owner of the type address */\n    address payable owner;\n\n    /* This function is executed at initialization and sets the owner of the contract */\n    constructor () { owner = payable(msg.sender); }\n\n    /* Function to recover the funds on the contract */\n    function kill() public { if (msg.sender == owner) selfdestruct(owner); }\n}\n\n\ncontract module2 is Mortal {\n    struct Account{\n        uint8 role;\n        // amount of electricity consumption, in Joul\n        uint consumption;\n        // amount of output by prosumer or battery station or power station, in Joul\n        uint output;\n        // unpaid expense, negative denotes income\n        int bill;\n    }\n\n    // CONSUMER denotes the registration status, \n    // other roles are regarded as special consumers\n    uint8 constant public CONSUMER = 1;\n    uint8 constant public PROSUMER = 2;\n    // battery station\n    uint8 constant public RETAILER = 3;\n    /* POWER_STATION is not used since we assume the electricity generation\n     * of power station can be derived from the difference between consumption and\n     * prosumer production.  \n     */\n    uint8 constant public POWER_STATION = 4;\n\n    // the starting time of the system, for calculating sequence block number\n    uint public TIME_START;\n    // the interval of a sequence block \n    uint public SEQUENCE_INV;\n    // the renewable electricity price for prosumer output\n    uint public RENEWABLE_PRICE;\n    // the unrenewable electricity price for power station output\n    uint public UNRENEWABLE_PRICE;\n    // the price settled by the last settlement\n    uint public latest_price;\n    // the latest sequence block number settled \n    uint public last_settlement;\n\n    mapping(address => Account) public account_map;\n    // mapping of the event-emitted account address, to avoid duplicated event\n    mapping(address => bool) logged_map;\n    address[] public consumer_addrs;\n    address[] public prosumer_addrs;\n    address[] public retailer_addrs;\n    address[] public power_station_addrs;\n\n    event ConsEvent(uint indexed seqnum, address indexed cons_addr, uint cons);\n    event ProdEvent(uint indexed seqnum, address indexed prod_addr, uint prod);\n    event SellEvent(uint indexed seqnum, address indexed sell_addr, uint sold);\n    event SettleEvent(uint indexed seqnum, uint indexed role, address indexed account_addr, uint consumption, uint output,  int expense);\n    event PsGenEvent(uint indexed seqnum, address indexed ps_addr, uint generation);\n    event PriceEvent(uint indexed seqnum, uint c_price, uint ps_price, uint bs_price, uint p_price);\n\n    constructor (uint seq_blk_interval, uint renew_price, uint unre_price)  {\n        SEQUENCE_INV = seq_blk_interval;\n        TIME_START = block.timestamp;\n        RENEWABLE_PRICE = renew_price;\n        UNRENEWABLE_PRICE = unre_price;\n        latest_price = (RENEWABLE_PRICE+UNRENEWABLE_PRICE)/2;\n        last_settlement = 0;\n    }\n\n    modifier only_completed_prev_seq(){\n\n        \n        require(get_current_seqnum() <= last_settlement+1, \"the previous block has been settled\");\n        _;\n    }\n\n    modifier not_registered(){\n        require(account_map[msg.sender].role == 0);\n        _;\n    }\n\n    /// get current sequence block number\n    function get_current_seqnum() view public  \n        returns (uint seqnum) \n    {\n        uint cur_seqnum = (block.timestamp - TIME_START)/SEQUENCE_INV;\n        return (cur_seqnum);\n    }\n\n    /// get last settlement sequence block number\n    function get_last_settlement() view public\n        returns (uint seqnum)\n    {\n        return (last_settlement);\n    }\n\n    function get_bill(address account) view public\n        returns (int expense)\n    {\n        return account_map[account].bill;\n    }\n\n    function register_consumer() public not_registered{\n        account_map[msg.sender].role = CONSUMER;\n        consumer_addrs.push(msg.sender);\n    }\n\n    function register_prosumer() public  not_registered{\n        account_map[msg.sender].role = PROSUMER;\n        consumer_addrs.push(msg.sender);\n        prosumer_addrs.push(msg.sender);\n    }\n\n    function register_battery_station() public not_registered{\n        account_map[msg.sender].role = RETAILER;\n        consumer_addrs.push(msg.sender);\n        retailer_addrs.push(msg.sender);\n    }\n\n    function register_power_station() public not_registered{\n        account_map[msg.sender].role = POWER_STATION;\n        consumer_addrs.push(msg.sender);\n        power_station_addrs.push(msg.sender);\n    }\n\n    /// post consumption, assumption: any role can post_cons\n    function post_cons(uint amount) public only_completed_prev_seq\n        returns (uint seqnum, uint cons) \n    {   \n        require(account_map[msg.sender].role != 0, \"any registered node can consume\");\n        \n        account_map[msg.sender].consumption += amount;\n\n        uint cur_seqnum = get_current_seqnum();\n        uint consumption = account_map[msg.sender].consumption;\n\n        emit ConsEvent(cur_seqnum, msg.sender, consumption);\n        return (cur_seqnum, consumption);\n    }\n\n    /// post production, assumption: only prosumer can post_cons\n    function post_prod(uint amount) public only_completed_prev_seq\n        returns (uint seqnum, uint prod)\n    {   \n        require(account_map[msg.sender].role == PROSUMER, \"consitent node type\");\n\n        account_map[msg.sender].output += amount;\n\n        uint cur_seqnum = get_current_seqnum();\n        uint production = account_map[msg.sender].output;\n\n        emit ProdEvent(cur_seqnum, msg.sender, production);\n        return (seqnum, production);\n    }\n\n    /// post sale, assumption: only retailer(battery station) can post_sell\n    function post_sell(uint amount) public only_completed_prev_seq\n        returns (uint seqnum, uint sold)\n    {\n        require(account_map[msg.sender].role == RETAILER, \"consitent node type\");\n\n        account_map[msg.sender].output += amount;\n\n        uint cur_seqnum = get_current_seqnum();\n        uint cur_sold = account_map[msg.sender].output;\n\n        emit SellEvent(cur_seqnum, msg.sender, cur_sold);\n        return (seqnum, cur_sold);\n    }\n\n    /// post power station generation, assumption: only power station can post_ps_gen\n    function post_ps_gen(uint amount) public only_completed_prev_seq\n        returns (uint seqnum, uint generation)\n    {\n        require(account_map[msg.sender].role == POWER_STATION, \"consitent node type\");\n\n        account_map[msg.sender].output += amount;\n\n        uint cur_seqnum = get_current_seqnum();\n        uint cur_generation = account_map[msg.sender].output;\n\n        emit PsGenEvent(cur_seqnum, msg.sender, cur_generation);\n        return (seqnum, cur_generation);\n    }\n\n    /// settle the previous sequence block\n    function settle() public returns (uint seqnum){\n        uint cur_seqnum = get_current_seqnum();\n        // return 0 if still in the sequence block next to the last_settlement\n        if(cur_seqnum <= last_settlement+1){\n            return 0;\n        }\n\n        uint cons_sum = 0;\n        uint prod_sum = 0;\n        uint bs_sum = 0;\n        uint64 i = 0;\n\n        // consumer_addrs contains all the registered account addresses\n        for (i=0; i<consumer_addrs.length; i++){\n            cons_sum += account_map[consumer_addrs[i]].consumption;\n        }\n\n        for (i=0; i<prosumer_addrs.length; i++){\n            prod_sum += account_map[prosumer_addrs[i]].output;\n        }\n\n        for (i=0; i<retailer_addrs.length; i++){\n            bs_sum += account_map[retailer_addrs[i]].output;\n        }\n\n\n        uint ps_sum = cons_sum - prod_sum - bs_sum;\n        uint revenue_sum = (latest_price*bs_sum)\n                                +(UNRENEWABLE_PRICE*ps_sum)\n                                +(RENEWABLE_PRICE*prod_sum);\n\n        uint c_price;\n        if(cons_sum != 0){\n            c_price = revenue_sum/cons_sum;\n        }\n        else{\n            c_price = latest_price;\n        }\n        emit PriceEvent(cur_seqnum-1, c_price, UNRENEWABLE_PRICE, latest_price, RENEWABLE_PRICE);\n        int expense;\n        uint consumption;\n        uint output;\n\n        // emit event for power station\n        if(power_station_addrs.length == 0){\n            emit SettleEvent(cur_seqnum-1, POWER_STATION, address(0), 0, ps_sum, -int(ps_sum*UNRENEWABLE_PRICE));\n        }\n        else{\n            expense = -int(ps_sum*UNRENEWABLE_PRICE);\n            account_map[power_station_addrs[0]].bill += expense;\n            emit SettleEvent(cur_seqnum-1, POWER_STATION, power_station_addrs[0], \n                account_map[power_station_addrs[0]].consumption, ps_sum, expense);\n            logged_map[power_station_addrs[0]] = true;\n        }\n        /* TODO END */\n\n        // emit event for battery stations\n        for (i=0; i<retailer_addrs.length; i++){\n            consumption = account_map[retailer_addrs[i]].consumption;\n            output = account_map[retailer_addrs[i]].output;\n            expense = int(c_price*consumption)\n                        - int(latest_price*output);\n            account_map[retailer_addrs[i]].bill += expense;\n            emit SettleEvent(cur_seqnum-1, RETAILER, retailer_addrs[i], consumption, output, expense);\n            logged_map[retailer_addrs[i]] = true;\n        }\n\n        // emit event for prosumers\n        for (i=0; i<prosumer_addrs.length; i++){\n            consumption = account_map[prosumer_addrs[i]].consumption;\n            output = account_map[prosumer_addrs[i]].output;\n            expense = int(c_price*consumption)\n                        - int(RENEWABLE_PRICE*output);\n            account_map[prosumer_addrs[i]].bill += expense;\n            emit SettleEvent(cur_seqnum-1, PROSUMER, prosumer_addrs[i], consumption, output, expense);\n            logged_map[prosumer_addrs[i]] = true;\n        }\n\n        // emit event for consumers who are not battery stations, prosumers or power stations\n        // and clear all the logged record and data accumulation\n        for (i=0; i<consumer_addrs.length; i++){\n            // power station, or prosumer or battery station\n            consumption = account_map[consumer_addrs[i]].consumption;\n            if(logged_map[consumer_addrs[i]] == true){\n                logged_map[consumer_addrs[i]] = false;\n            }\n            // pure consumer\n            else{\n                expense = int(c_price*consumption);\n                emit SettleEvent(cur_seqnum-1, CONSUMER, consumer_addrs[i], consumption, 0, expense);\n            }\n            account_map[consumer_addrs[i]].output = 0;\n            account_map[consumer_addrs[i]].consumption = 0;\n        }\n        \n        latest_price = c_price;\n        last_settlement = cur_seqnum - 1;\n        return cur_seqnum;\n    }\n}\n",
  "sourcePath": "D:\\programfiles\\folder\\ptpcode\\smart-contract\\contracts\\module2.sol",
  "compiler": {
    "name": "solc",
    "version": "0.8.18+commit.87f61d96.Emscripten.clang"
  },
  "schemaVersion": "3.4.11",
  "updatedAt": "2023-02-16T17:28:39.926Z",
  "devdoc": {
    "kind": "dev",
    "methods": {},
    "version": 1
  },
  "userdoc": {
    "kind": "user",
    "methods": {},
    "version": 1
  }
}